:100000000C9461000C9473000C9473000C947300B6
:100010000C9473000C9473000C9473000C94730094
:100020000C9473000C9473000C9473000C94730084
:100030000C9473000C9473000C9473000C94730074
:100040000C94AF010C9473000C9473000C94730027
:100050000C9473000C9473000C9473000C94730054
:100060000C9473000C947300000000002300260021
:10007000290000000000240027002A0000000000E2
:10008000250028002B0004040404040404040202D4
:100090000202020203030303030301020408102007
:1000A0004080010204081020010204081020000012
:1000B0000008000201000003040700000000000027
:1000C000000011241FBECFEFD8E0DEBFCDBF21E07E
:1000D000A0E0B1E001C01D92A930B207E1F70E9493
:1000E0003E020C9483030C94000090E0FC01E25566
:1000F000FF4F2491FC01E656FF4F3491FC01EA5773
:10010000FF4FE491EE2309F43CC0222339F1233060
:1001100091F038F42130A9F0223001F584B58F7DBB
:1001200012C0273091F02830A1F02430B9F480912A
:1001300080008F7D03C0809180008F778093800046
:100140000DC084B58F7784BD09C08091B0008F77D2
:1001500003C08091B0008F7D8093B000F0E0EE0F7F
:10016000FF1FE458FF4FA591B4919FB7F894611118
:1001700004C08C913095382302C0EC913E2B3C9307
:100180009FBF0895CF93DF9390E0FC01E656FF4FA9
:100190002491FC01EA57FF4F8491882361F190E09C
:1001A000880F991FFC01EE58FF4FC591D491FC01B7
:1001B000E458FF4FA591B491611109C09FB7F8941D
:1001C0008881209582238883EC912E230BC0623096
:1001D00061F49FB7F8948881322F30958323888308
:1001E000EC912E2B2C939FBF06C08FB7F894E8811B
:1001F0002E2B28838FBFDF91CF9108953FB7F894BE
:100200008091050190910601A0910701B09108012C
:1002100026B5A89B05C02F3F19F00196A11DB11D61
:100220003FBFBA2FA92F982F8827820F911DA11D9C
:10023000B11DBC01CD0142E0660F771F881F991FD9
:100240004A95D1F708958F929F92AF92BF92CF9225
:10025000DF92EF92FF920E94FE004B015C0188EC5E
:10026000C82ED12CE12CF12C0E94FE00DC01CB0128
:1002700088199909AA09BB09883E9340A105B105CF
:1002800098F321E0C21AD108E108F10888EE880E3F
:1002900083E0981EA11CB11CC114D104E104F10437
:1002A00019F7FF90EF90DF90CF90BF90AF909F90A5
:1002B0008F9008950F931F93CF93DF93182FEB0127
:1002C00061E00E94C20060E0812F0E94750083E01F
:1002D00090E00197F1F761E0812F0E94750083E2C1
:1002E00090E00197F1F760E0812F0E94750060E0D7
:1002F0008C2F0E94C200DD27FE01E656FF4F64915D
:10030000FE01EA57FF4FE491F0E0EE0FFF1FE859BE
:10031000FF4F8591949100E412E42FE030E0462FE6
:100320000E94F901611571058105910549F0DC0113
:10033000CB010196A11DB11DBC01CD019F7003C071
:1003400060E070E0CB0128EA36E140E050E00E9436
:100350004203C901DF91CF911F910F9108951F9220
:100360000F920FB60F9211242F933F938F939F9369
:10037000AF93BF938091010190910201A09103017D
:10038000B09104013091000123E0230F2D3720F4B8
:100390000196A11DB11D05C026E8230F0296A11DDF
:1003A000B11D209300018093010190930201A0935D
:1003B0000301B09304018091050190910601A09181
:1003C0000701B09108010196A11DB11D809305019F
:1003D00090930601A0930701B0930801BF91AF91DC
:1003E0009F918F913F912F910F900FBE0F901F9073
:1003F0001895CF92DF92EF92FF920F931F93E82F01
:10040000F92F05C0015011092109310961F19081CD
:1004100096239417B9F305C0015011092109310938
:1004200011F1908196239413F7CFC12CD12CE12C9C
:10043000F12C0AC08FEFC81AD80AE80AF80A0C157E
:100440001D052E053F0579F080818623841791F3E1
:100450006C2D7D2D8E2D9F2D1F910F91FF90EF9074
:10046000DF90CF90089560E070E080E090E01F9111
:100470000F91FF90EF90DF90CF900895789484B51E
:10048000826084BD84B5816084BD85B5826085BD90
:1004900085B5816085BD80916E00816080936E001E
:1004A0001092810080918100826080938100809110
:1004B00081008160809381008091800081608093C1
:1004C00080008091B10084608093B1008091B00081
:1004D00081608093B00080917A00846080937A007C
:1004E00080917A00826080937A0080917A008160A6
:1004F00080937A0080917A00806880937A001092CD
:10050000C10061E088E00E94C20061E083E00E94D7
:10051000C20061E087E00E94C20061E084E00E94C6
:10052000C20061E086E00E94C20061E085E00E94B6
:10053000C20080E0E82E80E0F82E69E070E08AE0FA
:1005400090E00E945A018C016BE070E08CE090E03A
:100550000E945A01EC0108171907DCF460E088E0FA
:100560000E94750060E085E00E94750060E083E015
:100570000E94750060E086E00E94750061E087E0FF
:100580000E94750061E084E00E9475000E942301D2
:100590004FC060E088E00E94750060E085E00E9446
:1005A000750060E083E00E94750060E086E00E94D4
:1005B000750061E087E00E94750061E084E00E94C0
:1005C00075000E942301C017D1073CF569E070E077
:1005D0008AE090E00E945A018C016BE070E08CE0B0
:1005E00090E00E945A01EC0161E088E00E947500F1
:1005F00061E085E00E94750060E083E00E94750084
:1006000060E086E00E94750060E087E00E9475006F
:1006100060E084E00E947500D6CF0C171D070CF433
:100620009DCFE114F10409F488CF0E94000085CF2A
:1006300069E070E08AE090E00E945A018C016BE072
:1006400070E08CE090E00E945A01EC0160E088E0EC
:100650000E94750060E085E00E94750061E083E023
:100660000E94750061E086E00E94750060E087E00E
:100670000E94750060E084E00E9475000C171D0761
:10068000BCF2CFCF052E97FB1EF400940E945903B5
:1006900057FD07D00E94610307FC03D04EF40C9471
:1006A000590350954095309521953F4F4F4F5F4FDF
:1006B000089590958095709561957F4F8F4F9F4FCE
:1006C0000895A1E21A2EAA1BBB1BFD010DC0AA1F93
:1006D000BB1FEE1FFF1FA217B307E407F50720F0AB
:1006E000A21BB30BE40BF50B661F771F881F991F26
:1006F0001A9469F760957095809590959B01AC016F
:0A070000BD01CF010895F894FFCF6A
:00000001FF
